{
  "transactions": [
    {
      "hash": "0x3444b26c1c82923548aa687ce087cb245dd56ec6cdcf04c64af6215446455b3e",
      "transactionType": "CALL",
      "contractName": null,
      "contractAddress": "0xc17c13653f7c964e54a59423a5d0dca1b3e57037",
      "function": "mint(address,uint256)",
      "arguments": [
        "0x3f66cb04732004b0365007368d78BFdE1A133573",
        "50"
      ],
      "transaction": {
        "from": "0xc8fe571b23e3b9570c90dc6eca144585d5dc06c4",
        "to": "0xc17c13653f7c964e54a59423a5d0dca1b3e57037",
        "gas": "0x1933f",
        "value": "0x0",
        "input": "0x40c10f190000000000000000000000003f66cb04732004b0365007368d78bfde1a1335730000000000000000000000000000000000000000000000000000000000000032",
        "nonce": "0xd",
        "chainId": "0xaa36a7"
      },
      "additionalContracts": [],
      "isFixedGasLimit": false
    },
    {
      "hash": "0xc7b740eb679f6311b38f5bc943c3b20f693db7c8ca9814f79d2216889362e05f",
      "transactionType": "CALL",
      "contractName": null,
      "contractAddress": "0x3f66cb04732004b0365007368d78bfde1a133573",
      "function": "instantAirdrop(address[],bytes32[][])",
      "arguments": [
        "[0x70997970C51812dc3A010C7d01b50e0d17dc79C8, 0x3C44CdDdB6a900fa2b585dd299e03d12FA4293BC, 0x90F79bf6EB2c4f870365E785982E1f101E93b906, 0x15d34AAf54267DB7D7c367839AAf71A00a2C6A65, 0x3C44CdDdB6a900fa2b585dd299e03d12FA4293BC, 0x90F79bf6EB2c4f870365E785982E1f101E93b906, 0x15d34AAf54267DB7D7c367839AAf71A00a2C6A65, 0x6CA6d1e2D5347Bfab1d91e883F1915560e09129D]",
        "[[0x457aa17fe0228467c8ff03c94ef937caf43d83d6102043300dc6a2e9a13a7006, 0x7740d3381dbcd10b48af3ea70e97436d50fcbf83c3e7cc4f341d5df1f404ebba, 0xb004559c51f9408a5e6665221a790975cc25434116f15a219fe2bfbae0397ed1], [0x956c29270743256716ac81b12ec6b311915938037d99a40a5651ca317b41cfa6, 0x7740d3381dbcd10b48af3ea70e97436d50fcbf83c3e7cc4f341d5df1f404ebba, 0xb004559c51f9408a5e6665221a790975cc25434116f15a219fe2bfbae0397ed1], [0xa6a1530263e58ac2e404ff1471238c623d4845e048a7df521c6cbe4c66cd4d65, 0x3ef66d9922138427d5f0c22c88ff88e64263aa77d1fe0186c3b1a1ff7854fa9a, 0xb004559c51f9408a5e6665221a790975cc25434116f15a219fe2bfbae0397ed1], [0xb603ca691aa0d0ecd0b23afbf705f86ee2309d5b7538017d6355987c2ea8ca9c, 0x3ef66d9922138427d5f0c22c88ff88e64263aa77d1fe0186c3b1a1ff7854fa9a, 0xb004559c51f9408a5e6665221a790975cc25434116f15a219fe2bfbae0397ed1], [0xb603ca691aa0d0ecd0b23afbf705f86ee2309d5b7538017d6355987c2ea8ca9c, 0x2c9b468ec338c20e81ba80283430cf043f760f83ae0f3cf6a2620be35e20e4ee, 0xdba2743ca1209ee78d5853ca62a0a7cdaa30c5f2432648c1b266434f0cb08c52], [0x457aa17fe0228467c8ff03c94ef937caf43d83d6102043300dc6a2e9a13a7006, 0x2c9b468ec338c20e81ba80283430cf043f760f83ae0f3cf6a2620be35e20e4ee, 0xdba2743ca1209ee78d5853ca62a0a7cdaa30c5f2432648c1b266434f0cb08c52], [0x5fcac90dd610ce8b0c5ec14601922ef8a1afe3c4e5c95355f037b6b50c1aa163, 0x1d517766b49bcfdf4283b98037572e6026a05dc5540a8ba45c61b33eea62a641, 0xdba2743ca1209ee78d5853ca62a0a7cdaa30c5f2432648c1b266434f0cb08c52], [0xa6a1530263e58ac2e404ff1471238c623d4845e048a7df521c6cbe4c66cd4d65, 0x1d517766b49bcfdf4283b98037572e6026a05dc5540a8ba45c61b33eea62a641, 0xdba2743ca1209ee78d5853ca62a0a7cdaa30c5f2432648c1b266434f0cb08c52]]"
      ],
      "transaction": {
        "from": "0xc8fe571b23e3b9570c90dc6eca144585d5dc06c4",
        "to": "0x3f66cb04732004b0365007368d78bfde1a133573",
        "gas": "0x686db",
        "value": "0x0",
        "input": "0xa957966300000000000000000000000000000000000000000000000000000000000000400000000000000000000000000000000000000000000000000000000000000160000000000000000000000000000000000000000000000000000000000000000800000000000000000000000070997970c51812dc3a010c7d01b50e0d17dc79c80000000000000000000000003c44cdddb6a900fa2b585dd299e03d12fa4293bc00000000000000000000000090f79bf6eb2c4f870365e785982e1f101e93b90600000000000000000000000015d34aaf54267db7d7c367839aaf71a00a2c6a650000000000000000000000003c44cdddb6a900fa2b585dd299e03d12fa4293bc00000000000000000000000090f79bf6eb2c4f870365e785982e1f101e93b90600000000000000000000000015d34aaf54267db7d7c367839aaf71a00a2c6a650000000000000000000000006ca6d1e2d5347bfab1d91e883f1915560e09129d0000000000000000000000000000000000000000000000000000000000000008000000000000000000000000000000000000000000000000000000000000010000000000000000000000000000000000000000000000000000000000000001800000000000000000000000000000000000000000000000000000000000000200000000000000000000000000000000000000000000000000000000000000028000000000000000000000000000000000000000000000000000000000000003000000000000000000000000000000000000000000000000000000000000000380000000000000000000000000000000000000000000000000000000000000040000000000000000000000000000000000000000000000000000000000000004800000000000000000000000000000000000000000000000000000000000000003457aa17fe0228467c8ff03c94ef937caf43d83d6102043300dc6a2e9a13a70067740d3381dbcd10b48af3ea70e97436d50fcbf83c3e7cc4f341d5df1f404ebbab004559c51f9408a5e6665221a790975cc25434116f15a219fe2bfbae0397ed10000000000000000000000000000000000000000000000000000000000000003956c29270743256716ac81b12ec6b311915938037d99a40a5651ca317b41cfa67740d3381dbcd10b48af3ea70e97436d50fcbf83c3e7cc4f341d5df1f404ebbab004559c51f9408a5e6665221a790975cc25434116f15a219fe2bfbae0397ed10000000000000000000000000000000000000000000000000000000000000003a6a1530263e58ac2e404ff1471238c623d4845e048a7df521c6cbe4c66cd4d653ef66d9922138427d5f0c22c88ff88e64263aa77d1fe0186c3b1a1ff7854fa9ab004559c51f9408a5e6665221a790975cc25434116f15a219fe2bfbae0397ed10000000000000000000000000000000000000000000000000000000000000003b603ca691aa0d0ecd0b23afbf705f86ee2309d5b7538017d6355987c2ea8ca9c3ef66d9922138427d5f0c22c88ff88e64263aa77d1fe0186c3b1a1ff7854fa9ab004559c51f9408a5e6665221a790975cc25434116f15a219fe2bfbae0397ed10000000000000000000000000000000000000000000000000000000000000003b603ca691aa0d0ecd0b23afbf705f86ee2309d5b7538017d6355987c2ea8ca9c2c9b468ec338c20e81ba80283430cf043f760f83ae0f3cf6a2620be35e20e4eedba2743ca1209ee78d5853ca62a0a7cdaa30c5f2432648c1b266434f0cb08c520000000000000000000000000000000000000000000000000000000000000003457aa17fe0228467c8ff03c94ef937caf43d83d6102043300dc6a2e9a13a70062c9b468ec338c20e81ba80283430cf043f760f83ae0f3cf6a2620be35e20e4eedba2743ca1209ee78d5853ca62a0a7cdaa30c5f2432648c1b266434f0cb08c5200000000000000000000000000000000000000000000000000000000000000035fcac90dd610ce8b0c5ec14601922ef8a1afe3c4e5c95355f037b6b50c1aa1631d517766b49bcfdf4283b98037572e6026a05dc5540a8ba45c61b33eea62a641dba2743ca1209ee78d5853ca62a0a7cdaa30c5f2432648c1b266434f0cb08c520000000000000000000000000000000000000000000000000000000000000003a6a1530263e58ac2e404ff1471238c623d4845e048a7df521c6cbe4c66cd4d651d517766b49bcfdf4283b98037572e6026a05dc5540a8ba45c61b33eea62a641dba2743ca1209ee78d5853ca62a0a7cdaa30c5f2432648c1b266434f0cb08c52",
        "nonce": "0xe",
        "chainId": "0xaa36a7"
      },
      "additionalContracts": [],
      "isFixedGasLimit": false
    }
  ],
  "receipts": [
    {
      "status": "0x1",
      "cumulativeGasUsed": "0x7b0436",
      "logs": [
        {
          "address": "0xc17c13653f7c964e54a59423a5d0dca1b3e57037",
          "topics": [
            "0xddf252ad1be2c89b69c2b068fc378daa952ba7f163c4a11628f55a4df523b3ef",
            "0x0000000000000000000000000000000000000000000000000000000000000000",
            "0x0000000000000000000000003f66cb04732004b0365007368d78bfde1a133573"
          ],
          "data": "0x0000000000000000000000000000000000000000000000000000000000000032",
          "blockHash": "0x6212a908ccd337e65d12a1abcc3cfaffd710db3f28d739c206b9a6c2c3345b72",
          "blockNumber": "0x6e47db",
          "transactionHash": "0x3444b26c1c82923548aa687ce087cb245dd56ec6cdcf04c64af6215446455b3e",
          "transactionIndex": "0x4e",
          "logIndex": "0x76",
          "removed": false
        }
      ],
      "logsBloom": "0x00000000000000000000000000000000000000000000000000000000000000000000000000000000000000000000000000000000000000000000000000000000000000000000004000000008000000000000000000000000000000000000000000000000020000000000000000000800000000000000000000000010000000000000000000000000000000000000000000000000000000001000000000000000000000000000000000080000000000000000000000000000000000000080000000000002000000000000000000000000000000000000000000040000000020000000000000000000000100000000000000000000000000000000000000000000",
      "type": "0x2",
      "transactionHash": "0x3444b26c1c82923548aa687ce087cb245dd56ec6cdcf04c64af6215446455b3e",
      "transactionIndex": "0x4e",
      "blockHash": "0x6212a908ccd337e65d12a1abcc3cfaffd710db3f28d739c206b9a6c2c3345b72",
      "blockNumber": "0x6e47db",
      "gasUsed": "0x113ba",
      "effectiveGasPrice": "0x900dbe5",
      "from": "0xc8fe571b23e3b9570c90dc6eca144585d5dc06c4",
      "to": "0xc17c13653f7c964e54a59423a5d0dca1b3e57037",
      "contractAddress": null
    },
    {
      "status": "0x1",
      "cumulativeGasUsed": "0x7fbde2",
      "logs": [
        {
          "address": "0x3f66cb04732004b0365007368d78bfde1a133573",
          "topics": [
            "0xd8138f8a3f377c5259ca548e70e4c2de94f129f5a11036a15b69513cba2b426a"
          ],
          "data": "0x00000000000000000000000070997970c51812dc3a010c7d01b50e0d17dc79c80000000000000000000000000000000000000000000000000000000000000001",
          "blockHash": "0x6212a908ccd337e65d12a1abcc3cfaffd710db3f28d739c206b9a6c2c3345b72",
          "blockNumber": "0x6e47db",
          "transactionHash": "0xc7b740eb679f6311b38f5bc943c3b20f693db7c8ca9814f79d2216889362e05f",
          "transactionIndex": "0x4f",
          "logIndex": "0x77",
          "removed": false
        },
        {
          "address": "0xc17c13653f7c964e54a59423a5d0dca1b3e57037",
          "topics": [
            "0xddf252ad1be2c89b69c2b068fc378daa952ba7f163c4a11628f55a4df523b3ef",
            "0x0000000000000000000000003f66cb04732004b0365007368d78bfde1a133573",
            "0x00000000000000000000000070997970c51812dc3a010c7d01b50e0d17dc79c8"
          ],
          "data": "0x0000000000000000000000000000000000000000000000000000000000000001",
          "blockHash": "0x6212a908ccd337e65d12a1abcc3cfaffd710db3f28d739c206b9a6c2c3345b72",
          "blockNumber": "0x6e47db",
          "transactionHash": "0xc7b740eb679f6311b38f5bc943c3b20f693db7c8ca9814f79d2216889362e05f",
          "transactionIndex": "0x4f",
          "logIndex": "0x78",
          "removed": false
        },
        {
          "address": "0x3f66cb04732004b0365007368d78bfde1a133573",
          "topics": [
            "0xd8138f8a3f377c5259ca548e70e4c2de94f129f5a11036a15b69513cba2b426a"
          ],
          "data": "0x0000000000000000000000003c44cdddb6a900fa2b585dd299e03d12fa4293bc0000000000000000000000000000000000000000000000000000000000000001",
          "blockHash": "0x6212a908ccd337e65d12a1abcc3cfaffd710db3f28d739c206b9a6c2c3345b72",
          "blockNumber": "0x6e47db",
          "transactionHash": "0xc7b740eb679f6311b38f5bc943c3b20f693db7c8ca9814f79d2216889362e05f",
          "transactionIndex": "0x4f",
          "logIndex": "0x79",
          "removed": false
        },
        {
          "address": "0xc17c13653f7c964e54a59423a5d0dca1b3e57037",
          "topics": [
            "0xddf252ad1be2c89b69c2b068fc378daa952ba7f163c4a11628f55a4df523b3ef",
            "0x0000000000000000000000003f66cb04732004b0365007368d78bfde1a133573",
            "0x0000000000000000000000003c44cdddb6a900fa2b585dd299e03d12fa4293bc"
          ],
          "data": "0x0000000000000000000000000000000000000000000000000000000000000001",
          "blockHash": "0x6212a908ccd337e65d12a1abcc3cfaffd710db3f28d739c206b9a6c2c3345b72",
          "blockNumber": "0x6e47db",
          "transactionHash": "0xc7b740eb679f6311b38f5bc943c3b20f693db7c8ca9814f79d2216889362e05f",
          "transactionIndex": "0x4f",
          "logIndex": "0x7a",
          "removed": false
        },
        {
          "address": "0x3f66cb04732004b0365007368d78bfde1a133573",
          "topics": [
            "0xd8138f8a3f377c5259ca548e70e4c2de94f129f5a11036a15b69513cba2b426a"
          ],
          "data": "0x00000000000000000000000090f79bf6eb2c4f870365e785982e1f101e93b9060000000000000000000000000000000000000000000000000000000000000001",
          "blockHash": "0x6212a908ccd337e65d12a1abcc3cfaffd710db3f28d739c206b9a6c2c3345b72",
          "blockNumber": "0x6e47db",
          "transactionHash": "0xc7b740eb679f6311b38f5bc943c3b20f693db7c8ca9814f79d2216889362e05f",
          "transactionIndex": "0x4f",
          "logIndex": "0x7b",
          "removed": false
        },
        {
          "address": "0xc17c13653f7c964e54a59423a5d0dca1b3e57037",
          "topics": [
            "0xddf252ad1be2c89b69c2b068fc378daa952ba7f163c4a11628f55a4df523b3ef",
            "0x0000000000000000000000003f66cb04732004b0365007368d78bfde1a133573",
            "0x00000000000000000000000090f79bf6eb2c4f870365e785982e1f101e93b906"
          ],
          "data": "0x0000000000000000000000000000000000000000000000000000000000000001",
          "blockHash": "0x6212a908ccd337e65d12a1abcc3cfaffd710db3f28d739c206b9a6c2c3345b72",
          "blockNumber": "0x6e47db",
          "transactionHash": "0xc7b740eb679f6311b38f5bc943c3b20f693db7c8ca9814f79d2216889362e05f",
          "transactionIndex": "0x4f",
          "logIndex": "0x7c",
          "removed": false
        },
        {
          "address": "0x3f66cb04732004b0365007368d78bfde1a133573",
          "topics": [
            "0xd8138f8a3f377c5259ca548e70e4c2de94f129f5a11036a15b69513cba2b426a"
          ],
          "data": "0x00000000000000000000000015d34aaf54267db7d7c367839aaf71a00a2c6a650000000000000000000000000000000000000000000000000000000000000001",
          "blockHash": "0x6212a908ccd337e65d12a1abcc3cfaffd710db3f28d739c206b9a6c2c3345b72",
          "blockNumber": "0x6e47db",
          "transactionHash": "0xc7b740eb679f6311b38f5bc943c3b20f693db7c8ca9814f79d2216889362e05f",
          "transactionIndex": "0x4f",
          "logIndex": "0x7d",
          "removed": false
        },
        {
          "address": "0xc17c13653f7c964e54a59423a5d0dca1b3e57037",
          "topics": [
            "0xddf252ad1be2c89b69c2b068fc378daa952ba7f163c4a11628f55a4df523b3ef",
            "0x0000000000000000000000003f66cb04732004b0365007368d78bfde1a133573",
            "0x00000000000000000000000015d34aaf54267db7d7c367839aaf71a00a2c6a65"
          ],
          "data": "0x0000000000000000000000000000000000000000000000000000000000000001",
          "blockHash": "0x6212a908ccd337e65d12a1abcc3cfaffd710db3f28d739c206b9a6c2c3345b72",
          "blockNumber": "0x6e47db",
          "transactionHash": "0xc7b740eb679f6311b38f5bc943c3b20f693db7c8ca9814f79d2216889362e05f",
          "transactionIndex": "0x4f",
          "logIndex": "0x7e",
          "removed": false
        },
        {
          "address": "0x3f66cb04732004b0365007368d78bfde1a133573",
          "topics": [
            "0xd8138f8a3f377c5259ca548e70e4c2de94f129f5a11036a15b69513cba2b426a"
          ],
          "data": "0x0000000000000000000000006ca6d1e2d5347bfab1d91e883f1915560e09129d0000000000000000000000000000000000000000000000000000000000000001",
          "blockHash": "0x6212a908ccd337e65d12a1abcc3cfaffd710db3f28d739c206b9a6c2c3345b72",
          "blockNumber": "0x6e47db",
          "transactionHash": "0xc7b740eb679f6311b38f5bc943c3b20f693db7c8ca9814f79d2216889362e05f",
          "transactionIndex": "0x4f",
          "logIndex": "0x7f",
          "removed": false
        },
        {
          "address": "0xc17c13653f7c964e54a59423a5d0dca1b3e57037",
          "topics": [
            "0xddf252ad1be2c89b69c2b068fc378daa952ba7f163c4a11628f55a4df523b3ef",
            "0x0000000000000000000000003f66cb04732004b0365007368d78bfde1a133573",
            "0x0000000000000000000000006ca6d1e2d5347bfab1d91e883f1915560e09129d"
          ],
          "data": "0x0000000000000000000000000000000000000000000000000000000000000001",
          "blockHash": "0x6212a908ccd337e65d12a1abcc3cfaffd710db3f28d739c206b9a6c2c3345b72",
          "blockNumber": "0x6e47db",
          "transactionHash": "0xc7b740eb679f6311b38f5bc943c3b20f693db7c8ca9814f79d2216889362e05f",
          "transactionIndex": "0x4f",
          "logIndex": "0x80",
          "removed": false
        }
      ],
      "logsBloom": "0x00000000040000000002000000000000000080000000000000000000000000000000000080000000000000008000000000000000000000000000000000100000000000000000004000000008000000000000000000001000000000000000000000000800000000000000000000000000000800000000000000000010000000000000000000000000020000000000000000010000000000001400000100000000000000000000200000080000000000000000000000010000000000000080000000000002000000002000000000000000400000000000000000040000000004000000000000000000000110000000000001000001000000000000000000000000",
      "type": "0x2",
      "transactionHash": "0xc7b740eb679f6311b38f5bc943c3b20f693db7c8ca9814f79d2216889362e05f",
      "transactionIndex": "0x4f",
      "blockHash": "0x6212a908ccd337e65d12a1abcc3cfaffd710db3f28d739c206b9a6c2c3345b72",
      "blockNumber": "0x6e47db",
      "gasUsed": "0x4b9ac",
      "effectiveGasPrice": "0x900dbe5",
      "from": "0xc8fe571b23e3b9570c90dc6eca144585d5dc06c4",
      "to": "0x3f66cb04732004b0365007368d78bfde1a133573",
      "contractAddress": null
    }
  ],
  "libraries": [],
  "pending": [],
  "returns": {},
  "timestamp": 1733541864,
  "chain": 11155111,
  "commit": null
}