{
  "transactions": [
    {
      "hash": "0x9c1f7d6e237e81d9c1ae62019a71c325cb5fad8824bdd6f565bc0240412f102c",
      "transactionType": "CALL",
      "contractName": null,
      "contractAddress": "0x77bd02c74129d338bbfc50ae458cff6254c85615",
      "function": "mint(address,uint256)",
      "arguments": [
        "0xB08E809012dBfaD680E1a6AeD2DE595bEBd3b1B9",
        "10000000000000000000"
      ],
      "transaction": {
        "from": "0xc8fe571b23e3b9570c90dc6eca144585d5dc06c4",
        "to": "0x77bd02c74129d338bbfc50ae458cff6254c85615",
        "gas": "0xc4a3",
        "value": "0x0",
        "input": "0x40c10f19000000000000000000000000b08e809012dbfad680e1a6aed2de595bebd3b1b90000000000000000000000000000000000000000000000008ac7230489e80000",
        "nonce": "0x1c",
        "chainId": "0xaa36a7"
      },
      "additionalContracts": [],
      "isFixedGasLimit": false
    },
    {
      "hash": "0xcd57c19efcba979f041fae9d79dbf0f131a6951960a9f2357d26634c008a0e1a",
      "transactionType": "CALL",
      "contractName": null,
      "contractAddress": "0xb08e809012dbfad680e1a6aed2de595bebd3b1b9",
      "function": "instantAirdrop(address[],bytes32[][])",
      "arguments": [
        "[0x70997970C51812dc3A010C7d01b50e0d17dc79C8, 0x3C44CdDdB6a900fa2b585dd299e03d12FA4293BC, 0x90F79bf6EB2c4f870365E785982E1f101E93b906, 0x15d34AAf54267DB7D7c367839AAf71A00a2C6A65, 0x5b75568f202FFd0a9D945F44fcf7bC1d2A292D2E, 0x467CabfDE020965447b68115427F2BC3dF09299B, 0x2a12ee179a323DDdE5217c425bf36EB84a0Be960, 0x6CA6d1e2D5347Bfab1d91e883F1915560e09129D]",
        "[[0x4b3b626ffd3172219c355649a56f3e7be312735516cd2cbe21d75dce2f1b7511, 0x145af18a54d8cfeeb265a742cc3e22bb00c1b52b8d9489af15a8902a3481116f, 0xf56c050456fd7dcfd433e69f8755a1f6f3546e1613992dc524d3b0bfeaf875c7], [0x48b89d46ac36bc91cff52fda8f367663966eeb47da22a76a3f52c1ed976504ee, 0x145af18a54d8cfeeb265a742cc3e22bb00c1b52b8d9489af15a8902a3481116f, 0xf56c050456fd7dcfd433e69f8755a1f6f3546e1613992dc524d3b0bfeaf875c7], [0x46af3bf60f1d29df4124491607513ca463a2598c8966842e86ebd43a83904a88, 0x45ebb01b5ea93ec3412cb6a42918a69f6c67d4b11ab2b8ef8c87d82e07b588dd, 0xf56c050456fd7dcfd433e69f8755a1f6f3546e1613992dc524d3b0bfeaf875c7], [0xb59d2757867729148ead7b1625cda7d611ecfe6cb5861088ddcdb2c4b24a53aa, 0x45ebb01b5ea93ec3412cb6a42918a69f6c67d4b11ab2b8ef8c87d82e07b588dd, 0xf56c050456fd7dcfd433e69f8755a1f6f3546e1613992dc524d3b0bfeaf875c7], [0x9c58e57f69a96c2f41c96c123d01897f6e41c0ec8f430e5c33424f85840b3025, 0x56db5101937c162d68f91733aaa67ddb53e8312b1d24600ae112e29db7794328, 0xfc1fee5ff7474b7b2e5de020fb0203fb26f02e6f5338583f6828df6fa72b6d38], [0xd54d3e3691948f0daff84c6d59aa96ddc4df35c8ed0502533dc75188da3f5ef9, 0x56db5101937c162d68f91733aaa67ddb53e8312b1d24600ae112e29db7794328, 0xfc1fee5ff7474b7b2e5de020fb0203fb26f02e6f5338583f6828df6fa72b6d38], [0xea8466b5d014891e8515153240867cb42b94a1db4d5f06d126a89cef66059de4, 0x042bf249217348e24d76ab01bd93a18f04dfac9d00ef0bc8e77e71af4f692b9d, 0xfc1fee5ff7474b7b2e5de020fb0203fb26f02e6f5338583f6828df6fa72b6d38], [0x366e8da09c0d17824bbb62c407d54737d93bf0e94ac50bab49bd63daf3efc7ba, 0x042bf249217348e24d76ab01bd93a18f04dfac9d00ef0bc8e77e71af4f692b9d, 0xfc1fee5ff7474b7b2e5de020fb0203fb26f02e6f5338583f6828df6fa72b6d38]]"
      ],
      "transaction": {
        "from": "0xc8fe571b23e3b9570c90dc6eca144585d5dc06c4",
        "to": "0xb08e809012dbfad680e1a6aed2de595bebd3b1b9",
        "gas": "0x1553a",
        "value": "0x0",
        "input": "0xa957966300000000000000000000000000000000000000000000000000000000000000400000000000000000000000000000000000000000000000000000000000000160000000000000000000000000000000000000000000000000000000000000000800000000000000000000000070997970c51812dc3a010c7d01b50e0d17dc79c80000000000000000000000003c44cdddb6a900fa2b585dd299e03d12fa4293bc00000000000000000000000090f79bf6eb2c4f870365e785982e1f101e93b90600000000000000000000000015d34aaf54267db7d7c367839aaf71a00a2c6a650000000000000000000000005b75568f202ffd0a9d945f44fcf7bc1d2a292d2e000000000000000000000000467cabfde020965447b68115427f2bc3df09299b0000000000000000000000002a12ee179a323ddde5217c425bf36eb84a0be9600000000000000000000000006ca6d1e2d5347bfab1d91e883f1915560e09129d00000000000000000000000000000000000000000000000000000000000000080000000000000000000000000000000000000000000000000000000000000100000000000000000000000000000000000000000000000000000000000000018000000000000000000000000000000000000000000000000000000000000002000000000000000000000000000000000000000000000000000000000000000280000000000000000000000000000000000000000000000000000000000000030000000000000000000000000000000000000000000000000000000000000003800000000000000000000000000000000000000000000000000000000000000400000000000000000000000000000000000000000000000000000000000000048000000000000000000000000000000000000000000000000000000000000000034b3b626ffd3172219c355649a56f3e7be312735516cd2cbe21d75dce2f1b7511145af18a54d8cfeeb265a742cc3e22bb00c1b52b8d9489af15a8902a3481116ff56c050456fd7dcfd433e69f8755a1f6f3546e1613992dc524d3b0bfeaf875c7000000000000000000000000000000000000000000000000000000000000000348b89d46ac36bc91cff52fda8f367663966eeb47da22a76a3f52c1ed976504ee145af18a54d8cfeeb265a742cc3e22bb00c1b52b8d9489af15a8902a3481116ff56c050456fd7dcfd433e69f8755a1f6f3546e1613992dc524d3b0bfeaf875c7000000000000000000000000000000000000000000000000000000000000000346af3bf60f1d29df4124491607513ca463a2598c8966842e86ebd43a83904a8845ebb01b5ea93ec3412cb6a42918a69f6c67d4b11ab2b8ef8c87d82e07b588ddf56c050456fd7dcfd433e69f8755a1f6f3546e1613992dc524d3b0bfeaf875c70000000000000000000000000000000000000000000000000000000000000003b59d2757867729148ead7b1625cda7d611ecfe6cb5861088ddcdb2c4b24a53aa45ebb01b5ea93ec3412cb6a42918a69f6c67d4b11ab2b8ef8c87d82e07b588ddf56c050456fd7dcfd433e69f8755a1f6f3546e1613992dc524d3b0bfeaf875c700000000000000000000000000000000000000000000000000000000000000039c58e57f69a96c2f41c96c123d01897f6e41c0ec8f430e5c33424f85840b302556db5101937c162d68f91733aaa67ddb53e8312b1d24600ae112e29db7794328fc1fee5ff7474b7b2e5de020fb0203fb26f02e6f5338583f6828df6fa72b6d380000000000000000000000000000000000000000000000000000000000000003d54d3e3691948f0daff84c6d59aa96ddc4df35c8ed0502533dc75188da3f5ef956db5101937c162d68f91733aaa67ddb53e8312b1d24600ae112e29db7794328fc1fee5ff7474b7b2e5de020fb0203fb26f02e6f5338583f6828df6fa72b6d380000000000000000000000000000000000000000000000000000000000000003ea8466b5d014891e8515153240867cb42b94a1db4d5f06d126a89cef66059de4042bf249217348e24d76ab01bd93a18f04dfac9d00ef0bc8e77e71af4f692b9dfc1fee5ff7474b7b2e5de020fb0203fb26f02e6f5338583f6828df6fa72b6d380000000000000000000000000000000000000000000000000000000000000003366e8da09c0d17824bbb62c407d54737d93bf0e94ac50bab49bd63daf3efc7ba042bf249217348e24d76ab01bd93a18f04dfac9d00ef0bc8e77e71af4f692b9dfc1fee5ff7474b7b2e5de020fb0203fb26f02e6f5338583f6828df6fa72b6d38",
        "nonce": "0x1d",
        "chainId": "0xaa36a7"
      },
      "additionalContracts": [],
      "isFixedGasLimit": false
    }
  ],
  "receipts": [
    {
      "status": "0x1",
      "cumulativeGasUsed": "0xea165b",
      "logs": [
        {
          "address": "0x77bd02c74129d338bbfc50ae458cff6254c85615",
          "topics": [
            "0xddf252ad1be2c89b69c2b068fc378daa952ba7f163c4a11628f55a4df523b3ef",
            "0x0000000000000000000000000000000000000000000000000000000000000000",
            "0x000000000000000000000000b08e809012dbfad680e1a6aed2de595bebd3b1b9"
          ],
          "data": "0x0000000000000000000000000000000000000000000000008ac7230489e80000",
          "blockHash": "0xb6bb48498bddf154f868c18e263135a73f4be912034bc59a5ae11b82953a8429",
          "blockNumber": "0x6e4931",
          "transactionHash": "0x9c1f7d6e237e81d9c1ae62019a71c325cb5fad8824bdd6f565bc0240412f102c",
          "transactionIndex": "0x65",
          "logIndex": "0x109",
          "removed": false
        }
      ],
      "logsBloom": "0x00000000000000000000000000000000000000000000000000000000000000000000000000000000000000000000000000000000000000000004000000000000000000000000000000000008000000000000000000000000000000000000000000000000020000000000000000040800000000000000000000000010000000000000000000000000010000000000000000000000000000000000000000000000000000000000000000000000000000000000000000000000000000000000000000000002000008000000000000000000080000000000000000000000000020000000040000000000000000000000000000000000000000000000000000000000",
      "type": "0x2",
      "transactionHash": "0x9c1f7d6e237e81d9c1ae62019a71c325cb5fad8824bdd6f565bc0240412f102c",
      "transactionIndex": "0x65",
      "blockHash": "0xb6bb48498bddf154f868c18e263135a73f4be912034bc59a5ae11b82953a8429",
      "blockNumber": "0x6e4931",
      "gasUsed": "0x8e5e",
      "effectiveGasPrice": "0x1586cf73",
      "from": "0xc8fe571b23e3b9570c90dc6eca144585d5dc06c4",
      "to": "0x77bd02c74129d338bbfc50ae458cff6254c85615",
      "contractAddress": null
    },
    {
      "status": "0x1",
      "cumulativeGasUsed": "0xf03ff6",
      "logs": [],
      "logsBloom": "0x00000000000000000000000000000000000000000000000000000000000000000000000000000000000000000000000000000000000000000000000000000000000000000000000000000000000000000000000000000000000000000000000000000000000000000000000000000000000000000000000000000000000000000000000000000000000000000000000000000000000000000000000000000000000000000000000000000000000000000000000000000000000000000000000000000000000000000000000000000000000000000000000000000000000000000000000000000000000000000000000000000000000000000000000000000000",
      "type": "0x2",
      "transactionHash": "0xcd57c19efcba979f041fae9d79dbf0f131a6951960a9f2357d26634c008a0e1a",
      "transactionIndex": "0x67",
      "blockHash": "0xb6bb48498bddf154f868c18e263135a73f4be912034bc59a5ae11b82953a8429",
      "blockNumber": "0x6e4931",
      "gasUsed": "0xe952",
      "effectiveGasPrice": "0x1586cf73",
      "from": "0xc8fe571b23e3b9570c90dc6eca144585d5dc06c4",
      "to": "0xb08e809012dbfad680e1a6aed2de595bebd3b1b9",
      "contractAddress": null
    }
  ],
  "libraries": [],
  "pending": [],
  "returns": {},
  "timestamp": 1733546160,
  "chain": 11155111,
  "commit": null
}