{
  "transactions": [
    {
      "hash": "0x5fffef8c2d099877920559c9b388be1653cae5545ac7de348dea09d0f21fb972",
      "transactionType": "CALL",
      "contractName": null,
      "contractAddress": "0x77bd02c74129d338bbfc50ae458cff6254c85615",
      "function": "mint(address,uint256)",
      "arguments": [
        "0xB08E809012dBfaD680E1a6AeD2DE595bEBd3b1B9",
        "10000000000000000000"
      ],
      "transaction": {
        "from": "0xc8fe571b23e3b9570c90dc6eca144585d5dc06c4",
        "to": "0x77bd02c74129d338bbfc50ae458cff6254c85615",
        "gas": "0xc4a3",
        "value": "0x0",
        "input": "0x40c10f19000000000000000000000000b08e809012dbfad680e1a6aed2de595bebd3b1b90000000000000000000000000000000000000000000000008ac7230489e80000",
        "nonce": "0x15",
        "chainId": "0xaa36a7"
      },
      "additionalContracts": [],
      "isFixedGasLimit": false
    },
    {
      "hash": "0x98203bcf8699745e5687c3c02d5153ffbe28e6b41eb442093d73b616156668ef",
      "transactionType": "CALL",
      "contractName": null,
      "contractAddress": "0xb08e809012dbfad680e1a6aed2de595bebd3b1b9",
      "function": "instantAirdrop(address[],bytes32[][])",
      "arguments": [
        "[0x70997970C51812dc3A010C7d01b50e0d17dc79C8, 0x3C44CdDdB6a900fa2b585dd299e03d12FA4293BC, 0x90F79bf6EB2c4f870365E785982E1f101E93b906, 0x15d34AAf54267DB7D7c367839AAf71A00a2C6A65, 0x5b75568f202FFd0a9D945F44fcf7bC1d2A292D2E, 0x467CabfDE020965447b68115427F2BC3dF09299B, 0x2a12ee179a323DDdE5217c425bf36EB84a0Be960, 0x6CA6d1e2D5347Bfab1d91e883F1915560e09129D]",
        "[[0x457aa17fe0228467c8ff03c94ef937caf43d83d6102043300dc6a2e9a13a7006, 0x7740d3381dbcd10b48af3ea70e97436d50fcbf83c3e7cc4f341d5df1f404ebba, 0xa6640bd124dce4143a105226ddf4026aea894759919068825bb7c5d692cfe513], [0x956c29270743256716ac81b12ec6b311915938037d99a40a5651ca317b41cfa6, 0x7740d3381dbcd10b48af3ea70e97436d50fcbf83c3e7cc4f341d5df1f404ebba, 0xa6640bd124dce4143a105226ddf4026aea894759919068825bb7c5d692cfe513], [0xa6a1530263e58ac2e404ff1471238c623d4845e048a7df521c6cbe4c66cd4d65, 0x3ef66d9922138427d5f0c22c88ff88e64263aa77d1fe0186c3b1a1ff7854fa9a, 0xa6640bd124dce4143a105226ddf4026aea894759919068825bb7c5d692cfe513], [0xb603ca691aa0d0ecd0b23afbf705f86ee2309d5b7538017d6355987c2ea8ca9c, 0x3ef66d9922138427d5f0c22c88ff88e64263aa77d1fe0186c3b1a1ff7854fa9a, 0xa6640bd124dce4143a105226ddf4026aea894759919068825bb7c5d692cfe513], [0x60ca2c0a745530f71313e6dca2c910f30cde63cf3c9be6d708847ec482e1c7f3, 0x4882e9571b7fdf44e3ab5ea66080f9135ddb9f09475e08a3e88fb8305b785c2c, 0xdba2743ca1209ee78d5853ca62a0a7cdaa30c5f2432648c1b266434f0cb08c52], [0xe039423cd68aba4a1fc01b3408795eb9510dcf515cab319ac27133ed7b379e3c, 0x4882e9571b7fdf44e3ab5ea66080f9135ddb9f09475e08a3e88fb8305b785c2c, 0xdba2743ca1209ee78d5853ca62a0a7cdaa30c5f2432648c1b266434f0cb08c52], [0x5fcac90dd610ce8b0c5ec14601922ef8a1afe3c4e5c95355f037b6b50c1aa163, 0x7d225727a79ca82edfd81ed011c25d953018f4801003fc7626d76a84375ac490, 0xdba2743ca1209ee78d5853ca62a0a7cdaa30c5f2432648c1b266434f0cb08c52], [0xa835a0495543e13d40e3ac4892a20f9a8fca70fd8796b5932aa1f56f8fbd2917, 0x7d225727a79ca82edfd81ed011c25d953018f4801003fc7626d76a84375ac490, 0xdba2743ca1209ee78d5853ca62a0a7cdaa30c5f2432648c1b266434f0cb08c52]]"
      ],
      "transaction": {
        "from": "0xc8fe571b23e3b9570c90dc6eca144585d5dc06c4",
        "to": "0xb08e809012dbfad680e1a6aed2de595bebd3b1b9",
        "gas": "0x15581",
        "value": "0x0",
        "input": "0xa957966300000000000000000000000000000000000000000000000000000000000000400000000000000000000000000000000000000000000000000000000000000160000000000000000000000000000000000000000000000000000000000000000800000000000000000000000070997970c51812dc3a010c7d01b50e0d17dc79c80000000000000000000000003c44cdddb6a900fa2b585dd299e03d12fa4293bc00000000000000000000000090f79bf6eb2c4f870365e785982e1f101e93b90600000000000000000000000015d34aaf54267db7d7c367839aaf71a00a2c6a650000000000000000000000005b75568f202ffd0a9d945f44fcf7bc1d2a292d2e000000000000000000000000467cabfde020965447b68115427f2bc3df09299b0000000000000000000000002a12ee179a323ddde5217c425bf36eb84a0be9600000000000000000000000006ca6d1e2d5347bfab1d91e883f1915560e09129d0000000000000000000000000000000000000000000000000000000000000008000000000000000000000000000000000000000000000000000000000000010000000000000000000000000000000000000000000000000000000000000001800000000000000000000000000000000000000000000000000000000000000200000000000000000000000000000000000000000000000000000000000000028000000000000000000000000000000000000000000000000000000000000003000000000000000000000000000000000000000000000000000000000000000380000000000000000000000000000000000000000000000000000000000000040000000000000000000000000000000000000000000000000000000000000004800000000000000000000000000000000000000000000000000000000000000003457aa17fe0228467c8ff03c94ef937caf43d83d6102043300dc6a2e9a13a70067740d3381dbcd10b48af3ea70e97436d50fcbf83c3e7cc4f341d5df1f404ebbaa6640bd124dce4143a105226ddf4026aea894759919068825bb7c5d692cfe5130000000000000000000000000000000000000000000000000000000000000003956c29270743256716ac81b12ec6b311915938037d99a40a5651ca317b41cfa67740d3381dbcd10b48af3ea70e97436d50fcbf83c3e7cc4f341d5df1f404ebbaa6640bd124dce4143a105226ddf4026aea894759919068825bb7c5d692cfe5130000000000000000000000000000000000000000000000000000000000000003a6a1530263e58ac2e404ff1471238c623d4845e048a7df521c6cbe4c66cd4d653ef66d9922138427d5f0c22c88ff88e64263aa77d1fe0186c3b1a1ff7854fa9aa6640bd124dce4143a105226ddf4026aea894759919068825bb7c5d692cfe5130000000000000000000000000000000000000000000000000000000000000003b603ca691aa0d0ecd0b23afbf705f86ee2309d5b7538017d6355987c2ea8ca9c3ef66d9922138427d5f0c22c88ff88e64263aa77d1fe0186c3b1a1ff7854fa9aa6640bd124dce4143a105226ddf4026aea894759919068825bb7c5d692cfe513000000000000000000000000000000000000000000000000000000000000000360ca2c0a745530f71313e6dca2c910f30cde63cf3c9be6d708847ec482e1c7f34882e9571b7fdf44e3ab5ea66080f9135ddb9f09475e08a3e88fb8305b785c2cdba2743ca1209ee78d5853ca62a0a7cdaa30c5f2432648c1b266434f0cb08c520000000000000000000000000000000000000000000000000000000000000003e039423cd68aba4a1fc01b3408795eb9510dcf515cab319ac27133ed7b379e3c4882e9571b7fdf44e3ab5ea66080f9135ddb9f09475e08a3e88fb8305b785c2cdba2743ca1209ee78d5853ca62a0a7cdaa30c5f2432648c1b266434f0cb08c5200000000000000000000000000000000000000000000000000000000000000035fcac90dd610ce8b0c5ec14601922ef8a1afe3c4e5c95355f037b6b50c1aa1637d225727a79ca82edfd81ed011c25d953018f4801003fc7626d76a84375ac490dba2743ca1209ee78d5853ca62a0a7cdaa30c5f2432648c1b266434f0cb08c520000000000000000000000000000000000000000000000000000000000000003a835a0495543e13d40e3ac4892a20f9a8fca70fd8796b5932aa1f56f8fbd29177d225727a79ca82edfd81ed011c25d953018f4801003fc7626d76a84375ac490dba2743ca1209ee78d5853ca62a0a7cdaa30c5f2432648c1b266434f0cb08c52",
        "nonce": "0x16",
        "chainId": "0xaa36a7"
      },
      "additionalContracts": [],
      "isFixedGasLimit": false
    }
  ],
  "receipts": [
    {
      "status": "0x1",
      "cumulativeGasUsed": "0x1582b74",
      "logs": [
        {
          "address": "0x77bd02c74129d338bbfc50ae458cff6254c85615",
          "topics": [
            "0xddf252ad1be2c89b69c2b068fc378daa952ba7f163c4a11628f55a4df523b3ef",
            "0x0000000000000000000000000000000000000000000000000000000000000000",
            "0x000000000000000000000000b08e809012dbfad680e1a6aed2de595bebd3b1b9"
          ],
          "data": "0x0000000000000000000000000000000000000000000000008ac7230489e80000",
          "blockHash": "0x795a5018d21b6fa30cd9edb11aaa0f67e7b479eb0f07e86ca7cff71c164d1191",
          "blockNumber": "0x6e491f",
          "transactionHash": "0x5fffef8c2d099877920559c9b388be1653cae5545ac7de348dea09d0f21fb972",
          "transactionIndex": "0xda",
          "logIndex": "0xe6",
          "removed": false
        }
      ],
      "logsBloom": "0x00000000000000000000000000000000000000000000000000000000000000000000000000000000000000000000000000000000000000000004000000000000000000000000000000000008000000000000000000000000000000000000000000000000020000000000000000040800000000000000000000000010000000000000000000000000010000000000000000000000000000000000000000000000000000000000000000000000000000000000000000000000000000000000000000000002000008000000000000000000080000000000000000000000000020000000040000000000000000000000000000000000000000000000000000000000",
      "type": "0x2",
      "transactionHash": "0x5fffef8c2d099877920559c9b388be1653cae5545ac7de348dea09d0f21fb972",
      "transactionIndex": "0xda",
      "blockHash": "0x795a5018d21b6fa30cd9edb11aaa0f67e7b479eb0f07e86ca7cff71c164d1191",
      "blockNumber": "0x6e491f",
      "gasUsed": "0x8e5e",
      "effectiveGasPrice": "0xe38fba1",
      "from": "0xc8fe571b23e3b9570c90dc6eca144585d5dc06c4",
      "to": "0x77bd02c74129d338bbfc50ae458cff6254c85615",
      "contractAddress": null
    },
    {
      "status": "0x1",
      "cumulativeGasUsed": "0x15914f6",
      "logs": [],
      "logsBloom": "0x00000000000000000000000000000000000000000000000000000000000000000000000000000000000000000000000000000000000000000000000000000000000000000000000000000000000000000000000000000000000000000000000000000000000000000000000000000000000000000000000000000000000000000000000000000000000000000000000000000000000000000000000000000000000000000000000000000000000000000000000000000000000000000000000000000000000000000000000000000000000000000000000000000000000000000000000000000000000000000000000000000000000000000000000000000000",
      "type": "0x2",
      "transactionHash": "0x98203bcf8699745e5687c3c02d5153ffbe28e6b41eb442093d73b616156668ef",
      "transactionIndex": "0xdb",
      "blockHash": "0x795a5018d21b6fa30cd9edb11aaa0f67e7b479eb0f07e86ca7cff71c164d1191",
      "blockNumber": "0x6e491f",
      "gasUsed": "0xe982",
      "effectiveGasPrice": "0xe38fba1",
      "from": "0xc8fe571b23e3b9570c90dc6eca144585d5dc06c4",
      "to": "0xb08e809012dbfad680e1a6aed2de595bebd3b1b9",
      "contractAddress": null
    }
  ],
  "libraries": [],
  "pending": [],
  "returns": {},
  "timestamp": 1733545920,
  "chain": 11155111,
  "commit": null
}