{
  "transactions": [
    {
      "hash": "0x8ca1d833b8759d11f56b603f7f149409d695f76c13c1eb484cc89eb9d1cfad72",
      "transactionType": "CALL",
      "contractName": null,
      "contractAddress": "0xe9566e3337f0839c15e9bdeb6b4b564ccb7f29c2",
      "function": "mint(address,uint256)",
      "arguments": [
        "0x2451d2F9466a661D91DD2AEF87A2cb37472E15f9",
        "3"
      ],
      "transaction": {
        "from": "0xc8fe571b23e3b9570c90dc6eca144585d5dc06c4",
        "to": "0xe9566e3337f0839c15e9bdeb6b4b564ccb7f29c2",
        "gas": "0x1933f",
        "value": "0x0",
        "input": "0x40c10f190000000000000000000000002451d2f9466a661d91dd2aef87a2cb37472e15f90000000000000000000000000000000000000000000000000000000000000003",
        "nonce": "0x4e",
        "chainId": "0xaa36a7"
      },
      "additionalContracts": [],
      "isFixedGasLimit": false
    },
    {
      "hash": "0x93ca10d545521cfbdf22d3bb191c75fbf08c7ba4b0199759ccae0a3ada9724cb",
      "transactionType": "CALL",
      "contractName": null,
      "contractAddress": "0x2451d2f9466a661d91dd2aef87a2cb37472e15f9",
      "function": "instantAirdrop(address[],bytes32[][])",
      "arguments": [
        "[0x5b75568f202FFd0a9D945F44fcf7bC1d2A292D2E, 0x467CabfDE020965447b68115427F2BC3dF09299B, 0x2a12ee179a323DDdE5217c425bf36EB84a0Be960]",
        "[[0x60ca2c0a745530f71313e6dca2c910f30cde63cf3c9be6d708847ec482e1c7f3, 0x1586cb74ca11c29ec43c1b1e5d364fd7ed0eb44051d1d9ec4a415fa9d0531674], [0xe039423cd68aba4a1fc01b3408795eb9510dcf515cab319ac27133ed7b379e3c, 0x1586cb74ca11c29ec43c1b1e5d364fd7ed0eb44051d1d9ec4a415fa9d0531674], [0x0000000000000000000000000000000000000000000000000000000000000000, 0x7d225727a79ca82edfd81ed011c25d953018f4801003fc7626d76a84375ac490]]"
      ],
      "transaction": {
        "from": "0xc8fe571b23e3b9570c90dc6eca144585d5dc06c4",
        "to": "0x2451d2f9466a661d91dd2aef87a2cb37472e15f9",
        "gas": "0x3e821",
        "value": "0x0",
        "input": "0xa9579663000000000000000000000000000000000000000000000000000000000000004000000000000000000000000000000000000000000000000000000000000000c000000000000000000000000000000000000000000000000000000000000000030000000000000000000000005b75568f202ffd0a9d945f44fcf7bc1d2a292d2e000000000000000000000000467cabfde020965447b68115427f2bc3df09299b0000000000000000000000002a12ee179a323ddde5217c425bf36eb84a0be9600000000000000000000000000000000000000000000000000000000000000003000000000000000000000000000000000000000000000000000000000000006000000000000000000000000000000000000000000000000000000000000000c00000000000000000000000000000000000000000000000000000000000000120000000000000000000000000000000000000000000000000000000000000000260ca2c0a745530f71313e6dca2c910f30cde63cf3c9be6d708847ec482e1c7f31586cb74ca11c29ec43c1b1e5d364fd7ed0eb44051d1d9ec4a415fa9d05316740000000000000000000000000000000000000000000000000000000000000002e039423cd68aba4a1fc01b3408795eb9510dcf515cab319ac27133ed7b379e3c1586cb74ca11c29ec43c1b1e5d364fd7ed0eb44051d1d9ec4a415fa9d0531674000000000000000000000000000000000000000000000000000000000000000200000000000000000000000000000000000000000000000000000000000000007d225727a79ca82edfd81ed011c25d953018f4801003fc7626d76a84375ac490",
        "nonce": "0x4f",
        "chainId": "0xaa36a7"
      },
      "additionalContracts": [],
      "isFixedGasLimit": false
    }
  ],
  "receipts": [
    {
      "status": "0x1",
      "cumulativeGasUsed": "0x942727",
      "logs": [
        {
          "address": "0xe9566e3337f0839c15e9bdeb6b4b564ccb7f29c2",
          "topics": [
            "0xddf252ad1be2c89b69c2b068fc378daa952ba7f163c4a11628f55a4df523b3ef",
            "0x0000000000000000000000000000000000000000000000000000000000000000",
            "0x0000000000000000000000002451d2f9466a661d91dd2aef87a2cb37472e15f9"
          ],
          "data": "0x0000000000000000000000000000000000000000000000000000000000000003",
          "blockHash": "0xf980fc6a237a756cb0256c2cc81f2273570b518b850d553f2039c5c0649fedf4",
          "blockNumber": "0x6e9439",
          "transactionHash": "0x8ca1d833b8759d11f56b603f7f149409d695f76c13c1eb484cc89eb9d1cfad72",
          "transactionIndex": "0x38",
          "logIndex": "0x98",
          "removed": false
        }
      ],
      "logsBloom": "0x00000000000000000000000000000000000000000000002000000000000000000000000000000000000000000000000000000000020000000000000000020000000000000000000000000008000000000000000000000000000000000000000000000000020000000000000000000800000000000000000000000210000000000000000000000000000000000000000000000000000000000000000001000000000000000000000000000000000000000000020000000000000000000000000000000002000000000000000000000000000000000000000000000000000020000000000000000000000000000000000000000000000000000000000000000000",
      "type": "0x2",
      "transactionHash": "0x8ca1d833b8759d11f56b603f7f149409d695f76c13c1eb484cc89eb9d1cfad72",
      "transactionIndex": "0x38",
      "blockHash": "0xf980fc6a237a756cb0256c2cc81f2273570b518b850d553f2039c5c0649fedf4",
      "blockNumber": "0x6e9439",
      "gasUsed": "0x113ba",
      "effectiveGasPrice": "0xfdeb959",
      "from": "0xc8fe571b23e3b9570c90dc6eca144585d5dc06c4",
      "to": "0xe9566e3337f0839c15e9bdeb6b4b564ccb7f29c2",
      "contractAddress": null
    },
    {
      "status": "0x1",
      "cumulativeGasUsed": "0x96fb3b",
      "logs": [
        {
          "address": "0x2451d2f9466a661d91dd2aef87a2cb37472e15f9",
          "topics": [
            "0xd8138f8a3f377c5259ca548e70e4c2de94f129f5a11036a15b69513cba2b426a"
          ],
          "data": "0x0000000000000000000000005b75568f202ffd0a9d945f44fcf7bc1d2a292d2e0000000000000000000000000000000000000000000000000000000000000001",
          "blockHash": "0xf980fc6a237a756cb0256c2cc81f2273570b518b850d553f2039c5c0649fedf4",
          "blockNumber": "0x6e9439",
          "transactionHash": "0x93ca10d545521cfbdf22d3bb191c75fbf08c7ba4b0199759ccae0a3ada9724cb",
          "transactionIndex": "0x39",
          "logIndex": "0x99",
          "removed": false
        },
        {
          "address": "0xe9566e3337f0839c15e9bdeb6b4b564ccb7f29c2",
          "topics": [
            "0xddf252ad1be2c89b69c2b068fc378daa952ba7f163c4a11628f55a4df523b3ef",
            "0x0000000000000000000000002451d2f9466a661d91dd2aef87a2cb37472e15f9",
            "0x0000000000000000000000005b75568f202ffd0a9d945f44fcf7bc1d2a292d2e"
          ],
          "data": "0x0000000000000000000000000000000000000000000000000000000000000001",
          "blockHash": "0xf980fc6a237a756cb0256c2cc81f2273570b518b850d553f2039c5c0649fedf4",
          "blockNumber": "0x6e9439",
          "transactionHash": "0x93ca10d545521cfbdf22d3bb191c75fbf08c7ba4b0199759ccae0a3ada9724cb",
          "transactionIndex": "0x39",
          "logIndex": "0x9a",
          "removed": false
        },
        {
          "address": "0x2451d2f9466a661d91dd2aef87a2cb37472e15f9",
          "topics": [
            "0xd8138f8a3f377c5259ca548e70e4c2de94f129f5a11036a15b69513cba2b426a"
          ],
          "data": "0x000000000000000000000000467cabfde020965447b68115427f2bc3df09299b0000000000000000000000000000000000000000000000000000000000000001",
          "blockHash": "0xf980fc6a237a756cb0256c2cc81f2273570b518b850d553f2039c5c0649fedf4",
          "blockNumber": "0x6e9439",
          "transactionHash": "0x93ca10d545521cfbdf22d3bb191c75fbf08c7ba4b0199759ccae0a3ada9724cb",
          "transactionIndex": "0x39",
          "logIndex": "0x9b",
          "removed": false
        },
        {
          "address": "0xe9566e3337f0839c15e9bdeb6b4b564ccb7f29c2",
          "topics": [
            "0xddf252ad1be2c89b69c2b068fc378daa952ba7f163c4a11628f55a4df523b3ef",
            "0x0000000000000000000000002451d2f9466a661d91dd2aef87a2cb37472e15f9",
            "0x000000000000000000000000467cabfde020965447b68115427f2bc3df09299b"
          ],
          "data": "0x0000000000000000000000000000000000000000000000000000000000000001",
          "blockHash": "0xf980fc6a237a756cb0256c2cc81f2273570b518b850d553f2039c5c0649fedf4",
          "blockNumber": "0x6e9439",
          "transactionHash": "0x93ca10d545521cfbdf22d3bb191c75fbf08c7ba4b0199759ccae0a3ada9724cb",
          "transactionIndex": "0x39",
          "logIndex": "0x9c",
          "removed": false
        },
        {
          "address": "0x2451d2f9466a661d91dd2aef87a2cb37472e15f9",
          "topics": [
            "0xd8138f8a3f377c5259ca548e70e4c2de94f129f5a11036a15b69513cba2b426a"
          ],
          "data": "0x0000000000000000000000002a12ee179a323ddde5217c425bf36eb84a0be9600000000000000000000000000000000000000000000000000000000000000001",
          "blockHash": "0xf980fc6a237a756cb0256c2cc81f2273570b518b850d553f2039c5c0649fedf4",
          "blockNumber": "0x6e9439",
          "transactionHash": "0x93ca10d545521cfbdf22d3bb191c75fbf08c7ba4b0199759ccae0a3ada9724cb",
          "transactionIndex": "0x39",
          "logIndex": "0x9d",
          "removed": false
        },
        {
          "address": "0xe9566e3337f0839c15e9bdeb6b4b564ccb7f29c2",
          "topics": [
            "0xddf252ad1be2c89b69c2b068fc378daa952ba7f163c4a11628f55a4df523b3ef",
            "0x0000000000000000000000002451d2f9466a661d91dd2aef87a2cb37472e15f9",
            "0x0000000000000000000000002a12ee179a323ddde5217c425bf36eb84a0be960"
          ],
          "data": "0x0000000000000000000000000000000000000000000000000000000000000001",
          "blockHash": "0xf980fc6a237a756cb0256c2cc81f2273570b518b850d553f2039c5c0649fedf4",
          "blockNumber": "0x6e9439",
          "transactionHash": "0x93ca10d545521cfbdf22d3bb191c75fbf08c7ba4b0199759ccae0a3ada9724cb",
          "transactionIndex": "0x39",
          "logIndex": "0x9e",
          "removed": false
        }
      ],
      "logsBloom": "0x00000000000000000000000040000000000080000000002000000000000000000000000000000000000000000000000000000000060000000000000000020000000800000000000000000008000000000000000000001000000000000000000000000000000000000000000000080000000000000000000000000a10000000000000000000000000000000000000000000000000000000000000000009000000000000000000000000000000000000000000020000000000000000000000000000000002000000000000000000000000000000000000000000000000000000001000900000000000000004000000000000000001000000000000800000000000",
      "type": "0x2",
      "transactionHash": "0x93ca10d545521cfbdf22d3bb191c75fbf08c7ba4b0199759ccae0a3ada9724cb",
      "transactionIndex": "0x39",
      "blockHash": "0xf980fc6a237a756cb0256c2cc81f2273570b518b850d553f2039c5c0649fedf4",
      "blockNumber": "0x6e9439",
      "gasUsed": "0x2d414",
      "effectiveGasPrice": "0xfdeb959",
      "from": "0xc8fe571b23e3b9570c90dc6eca144585d5dc06c4",
      "to": "0x2451d2f9466a661d91dd2aef87a2cb37472e15f9",
      "contractAddress": null
    }
  ],
  "libraries": [],
  "pending": [],
  "returns": {},
  "timestamp": 1733790949,
  "chain": 11155111,
  "commit": null
}